{
  "_format": "hh-sol-artifact-1",
  "contractName": "BookNFT",
  "sourceName": "contracts/BookNFT.sol",
  "abi": [
    {
      "inputs": [],
      "stateMutability": "nonpayable",
      "type": "constructor"
    },
    {
      "inputs": [
        {
          "internalType": "address",
          "name": "sender",
          "type": "address"
        },
        {
          "internalType": "uint256",
          "name": "tokenId",
          "type": "uint256"
        },
        {
          "internalType": "address",
          "name": "owner",
          "type": "address"
        }
      ],
      "name": "ERC721IncorrectOwner",
      "type": "error"
    },
    {
      "inputs": [
        {
          "internalType": "address",
          "name": "operator",
          "type": "address"
        },
        {
          "internalType": "uint256",
          "name": "tokenId",
          "type": "uint256"
        }
      ],
      "name": "ERC721InsufficientApproval",
      "type": "error"
    },
    {
      "inputs": [
        {
          "internalType": "address",
          "name": "approver",
          "type": "address"
        }
      ],
      "name": "ERC721InvalidApprover",
      "type": "error"
    },
    {
      "inputs": [
        {
          "internalType": "address",
          "name": "operator",
          "type": "address"
        }
      ],
      "name": "ERC721InvalidOperator",
      "type": "error"
    },
    {
      "inputs": [
        {
          "internalType": "address",
          "name": "owner",
          "type": "address"
        }
      ],
      "name": "ERC721InvalidOwner",
      "type": "error"
    },
    {
      "inputs": [
        {
          "internalType": "address",
          "name": "receiver",
          "type": "address"
        }
      ],
      "name": "ERC721InvalidReceiver",
      "type": "error"
    },
    {
      "inputs": [
        {
          "internalType": "address",
          "name": "sender",
          "type": "address"
        }
      ],
      "name": "ERC721InvalidSender",
      "type": "error"
    },
    {
      "inputs": [
        {
          "internalType": "uint256",
          "name": "tokenId",
          "type": "uint256"
        }
      ],
      "name": "ERC721NonexistentToken",
      "type": "error"
    },
    {
      "inputs": [
        {
          "internalType": "address",
          "name": "owner",
          "type": "address"
        }
      ],
      "name": "OwnableInvalidOwner",
      "type": "error"
    },
    {
      "inputs": [
        {
          "internalType": "address",
          "name": "account",
          "type": "address"
        }
      ],
      "name": "OwnableUnauthorizedAccount",
      "type": "error"
    },
    {
      "inputs": [],
      "name": "ReentrancyGuardReentrantCall",
      "type": "error"
    },
    {
      "anonymous": false,
      "inputs": [
        {
          "indexed": true,
          "internalType": "address",
          "name": "owner",
          "type": "address"
        },
        {
          "indexed": true,
          "internalType": "address",
          "name": "approved",
          "type": "address"
        },
        {
          "indexed": true,
          "internalType": "uint256",
          "name": "tokenId",
          "type": "uint256"
        }
      ],
      "name": "Approval",
      "type": "event"
    },
    {
      "anonymous": false,
      "inputs": [
        {
          "indexed": true,
          "internalType": "address",
          "name": "owner",
          "type": "address"
        },
        {
          "indexed": true,
          "internalType": "address",
          "name": "operator",
          "type": "address"
        },
        {
          "indexed": false,
          "internalType": "bool",
          "name": "approved",
          "type": "bool"
        }
      ],
      "name": "ApprovalForAll",
      "type": "event"
    },
    {
      "anonymous": false,
      "inputs": [
        {
          "indexed": false,
          "internalType": "uint256",
          "name": "_fromTokenId",
          "type": "uint256"
        },
        {
          "indexed": false,
          "internalType": "uint256",
          "name": "_toTokenId",
          "type": "uint256"
        }
      ],
      "name": "BatchMetadataUpdate",
      "type": "event"
    },
    {
      "anonymous": false,
      "inputs": [
        {
          "indexed": true,
          "internalType": "string",
          "name": "bookId",
          "type": "string"
        },
        {
          "indexed": false,
          "internalType": "string",
          "name": "title",
          "type": "string"
        },
        {
          "indexed": false,
          "internalType": "string",
          "name": "author",
          "type": "string"
        },
        {
          "indexed": false,
          "internalType": "uint256",
          "name": "maxSupply",
          "type": "uint256"
        }
      ],
      "name": "BookMetadataUpdated",
      "type": "event"
    },
    {
      "anonymous": false,
      "inputs": [
        {
          "indexed": true,
          "internalType": "uint256",
          "name": "tokenId",
          "type": "uint256"
        },
        {
          "indexed": true,
          "internalType": "string",
          "name": "bookId",
          "type": "string"
        },
        {
          "indexed": true,
          "internalType": "address",
          "name": "owner",
          "type": "address"
        },
        {
          "indexed": false,
          "internalType": "string",
          "name": "tokenURI",
          "type": "string"
        },
        {
          "indexed": false,
          "internalType": "uint256",
          "name": "price",
          "type": "uint256"
        }
      ],
      "name": "BookNFTMinted",
      "type": "event"
    },
    {
      "anonymous": false,
      "inputs": [
        {
          "indexed": false,
          "internalType": "uint256",
          "name": "_tokenId",
          "type": "uint256"
        }
      ],
      "name": "MetadataUpdate",
      "type": "event"
    },
    {
      "anonymous": false,
      "inputs": [
        {
          "indexed": true,
          "internalType": "address",
          "name": "previousOwner",
          "type": "address"
        },
        {
          "indexed": true,
          "internalType": "address",
          "name": "newOwner",
          "type": "address"
        }
      ],
      "name": "OwnershipTransferred",
      "type": "event"
    },
    {
      "anonymous": false,
      "inputs": [
        {
          "indexed": false,
          "internalType": "uint256",
          "name": "newFee",
          "type": "uint256"
        }
      ],
      "name": "PlatformFeeUpdated",
      "type": "event"
    },
    {
      "anonymous": false,
      "inputs": [
        {
          "indexed": true,
          "internalType": "address",
          "name": "from",
          "type": "address"
        },
        {
          "indexed": true,
          "internalType": "address",
          "name": "to",
          "type": "address"
        },
        {
          "indexed": true,
          "internalType": "uint256",
          "name": "tokenId",
          "type": "uint256"
        }
      ],
      "name": "Transfer",
      "type": "event"
    },
    {
      "inputs": [],
      "name": "BASIS_POINTS",
      "outputs": [
        {
          "internalType": "uint256",
          "name": "",
          "type": "uint256"
        }
      ],
      "stateMutability": "view",
      "type": "function"
    },
    {
      "inputs": [
        {
          "internalType": "address",
          "name": "to",
          "type": "address"
        },
        {
          "internalType": "uint256",
          "name": "tokenId",
          "type": "uint256"
        }
      ],
      "name": "approve",
      "outputs": [],
      "stateMutability": "nonpayable",
      "type": "function"
    },
    {
      "inputs": [
        {
          "internalType": "address",
          "name": "owner",
          "type": "address"
        }
      ],
      "name": "balanceOf",
      "outputs": [
        {
          "internalType": "uint256",
          "name": "",
          "type": "uint256"
        }
      ],
      "stateMutability": "view",
      "type": "function"
    },
    {
      "inputs": [
        {
          "internalType": "string",
          "name": "",
          "type": "string"
        }
      ],
      "name": "bookAuthors",
      "outputs": [
        {
          "internalType": "address",
          "name": "",
          "type": "address"
        }
      ],
      "stateMutability": "view",
      "type": "function"
    },
    {
      "inputs": [
        {
          "internalType": "string",
          "name": "bookId",
          "type": "string"
        }
      ],
      "name": "bookExists",
      "outputs": [
        {
          "internalType": "bool",
          "name": "",
          "type": "bool"
        }
      ],
      "stateMutability": "view",
      "type": "function"
    },
    {
      "inputs": [
        {
          "internalType": "string",
          "name": "",
          "type": "string"
        }
      ],
      "name": "bookMetadata",
      "outputs": [
        {
          "internalType": "string",
          "name": "title",
          "type": "string"
        },
        {
          "internalType": "string",
          "name": "author",
          "type": "string"
        },
        {
          "internalType": "string",
          "name": "description",
          "type": "string"
        },
        {
          "internalType": "string",
          "name": "coverImage",
          "type": "string"
        },
        {
          "internalType": "uint256",
          "name": "totalChapters",
          "type": "uint256"
        },
        {
          "internalType": "bool",
          "name": "isComplete",
          "type": "bool"
        },
        {
          "internalType": "uint256",
          "name": "mintPrice",
          "type": "uint256"
        },
        {
          "internalType": "uint256",
          "name": "maxSupply",
          "type": "uint256"
        },
        {
          "internalType": "uint256",
          "name": "currentSupply",
          "type": "uint256"
        }
      ],
      "stateMutability": "view",
      "type": "function"
    },
    {
      "inputs": [
        {
          "internalType": "string",
          "name": "",
          "type": "string"
        },
        {
          "internalType": "uint256",
          "name": "",
          "type": "uint256"
        }
      ],
      "name": "bookTokenIds",
      "outputs": [
        {
          "internalType": "uint256",
          "name": "",
          "type": "uint256"
        }
      ],
      "stateMutability": "view",
      "type": "function"
    },
    {
      "inputs": [],
      "name": "emergencyWithdraw",
      "outputs": [],
      "stateMutability": "nonpayable",
      "type": "function"
    },
    {
      "inputs": [
        {
          "internalType": "uint256",
          "name": "tokenId",
          "type": "uint256"
        }
      ],
      "name": "getApproved",
      "outputs": [
        {
          "internalType": "address",
          "name": "",
          "type": "address"
        }
      ],
      "stateMutability": "view",
      "type": "function"
    },
    {
      "inputs": [
        {
          "internalType": "string",
          "name": "bookId",
          "type": "string"
        }
      ],
      "name": "getBookAuthor",
      "outputs": [
        {
          "internalType": "address",
          "name": "",
          "type": "address"
        }
      ],
      "stateMutability": "view",
      "type": "function"
    },
    {
      "inputs": [
        {
          "internalType": "uint256",
          "name": "tokenId",
          "type": "uint256"
        }
      ],
      "name": "getBookId",
      "outputs": [
        {
          "internalType": "string",
          "name": "",
          "type": "string"
        }
      ],
      "stateMutability": "view",
      "type": "function"
    },
    {
      "inputs": [
        {
          "internalType": "string",
          "name": "bookId",
          "type": "string"
        }
      ],
      "name": "getBookMetadata",
      "outputs": [
        {
          "components": [
            {
              "internalType": "string",
              "name": "title",
              "type": "string"
            },
            {
              "internalType": "string",
              "name": "author",
              "type": "string"
            },
            {
              "internalType": "string",
              "name": "description",
              "type": "string"
            },
            {
              "internalType": "string",
              "name": "coverImage",
              "type": "string"
            },
            {
              "internalType": "uint256",
              "name": "totalChapters",
              "type": "uint256"
            },
            {
              "internalType": "bool",
              "name": "isComplete",
              "type": "bool"
            },
            {
              "internalType": "uint256",
              "name": "mintPrice",
              "type": "uint256"
            },
            {
              "internalType": "uint256",
              "name": "maxSupply",
              "type": "uint256"
            },
            {
              "internalType": "uint256",
              "name": "currentSupply",
              "type": "uint256"
            }
          ],
          "internalType": "struct BookNFT.BookMetadata",
          "name": "",
          "type": "tuple"
        }
      ],
      "stateMutability": "view",
      "type": "function"
    },
    {
      "inputs": [
        {
          "internalType": "string",
          "name": "bookId",
          "type": "string"
        }
      ],
      "name": "getBookTokenIds",
      "outputs": [
        {
          "internalType": "uint256[]",
          "name": "",
          "type": "uint256[]"
        }
      ],
      "stateMutability": "view",
      "type": "function"
    },
    {
      "inputs": [
        {
          "internalType": "address",
          "name": "owner",
          "type": "address"
        },
        {
          "internalType": "address",
          "name": "operator",
          "type": "address"
        }
      ],
      "name": "isApprovedForAll",
      "outputs": [
        {
          "internalType": "bool",
          "name": "",
          "type": "bool"
        }
      ],
      "stateMutability": "view",
      "type": "function"
    },
    {
      "inputs": [
        {
          "internalType": "string",
          "name": "bookId",
          "type": "string"
        },
        {
          "components": [
            {
              "internalType": "string",
              "name": "title",
              "type": "string"
            },
            {
              "internalType": "string",
              "name": "author",
              "type": "string"
            },
            {
              "internalType": "string",
              "name": "description",
              "type": "string"
            },
            {
              "internalType": "string",
              "name": "coverImage",
              "type": "string"
            },
            {
              "internalType": "uint256",
              "name": "totalChapters",
              "type": "uint256"
            },
            {
              "internalType": "bool",
              "name": "isComplete",
              "type": "bool"
            },
            {
              "internalType": "uint256",
              "name": "mintPrice",
              "type": "uint256"
            },
            {
              "internalType": "uint256",
              "name": "maxSupply",
              "type": "uint256"
            },
            {
              "internalType": "uint256",
              "name": "currentSupply",
              "type": "uint256"
            }
          ],
          "internalType": "struct BookNFT.BookMetadata",
          "name": "metadata",
          "type": "tuple"
        },
        {
          "internalType": "string",
          "name": "tokenURI_",
          "type": "string"
        },
        {
          "internalType": "address",
          "name": "recipient",
          "type": "address"
        },
        {
          "internalType": "address",
          "name": "authorAddress",
          "type": "address"
        }
      ],
      "name": "mintBookNFT",
      "outputs": [
        {
          "internalType": "uint256",
          "name": "",
          "type": "uint256"
        }
      ],
      "stateMutability": "payable",
      "type": "function"
    },
    {
      "inputs": [],
      "name": "name",
      "outputs": [
        {
          "internalType": "string",
          "name": "",
          "type": "string"
        }
      ],
      "stateMutability": "view",
      "type": "function"
    },
    {
      "inputs": [],
      "name": "owner",
      "outputs": [
        {
          "internalType": "address",
          "name": "",
          "type": "address"
        }
      ],
      "stateMutability": "view",
      "type": "function"
    },
    {
      "inputs": [
        {
          "internalType": "uint256",
          "name": "tokenId",
          "type": "uint256"
        }
      ],
      "name": "ownerOf",
      "outputs": [
        {
          "internalType": "address",
          "name": "",
          "type": "address"
        }
      ],
      "stateMutability": "view",
      "type": "function"
    },
    {
      "inputs": [],
      "name": "platformFee",
      "outputs": [
        {
          "internalType": "uint256",
          "name": "",
          "type": "uint256"
        }
      ],
      "stateMutability": "view",
      "type": "function"
    },
    {
      "inputs": [],
      "name": "renounceOwnership",
      "outputs": [],
      "stateMutability": "nonpayable",
      "type": "function"
    },
    {
      "inputs": [
        {
          "internalType": "address",
          "name": "from",
          "type": "address"
        },
        {
          "internalType": "address",
          "name": "to",
          "type": "address"
        },
        {
          "internalType": "uint256",
          "name": "tokenId",
          "type": "uint256"
        }
      ],
      "name": "safeTransferFrom",
      "outputs": [],
      "stateMutability": "nonpayable",
      "type": "function"
    },
    {
      "inputs": [
        {
          "internalType": "address",
          "name": "from",
          "type": "address"
        },
        {
          "internalType": "address",
          "name": "to",
          "type": "address"
        },
        {
          "internalType": "uint256",
          "name": "tokenId",
          "type": "uint256"
        },
        {
          "internalType": "bytes",
          "name": "data",
          "type": "bytes"
        }
      ],
      "name": "safeTransferFrom",
      "outputs": [],
      "stateMutability": "nonpayable",
      "type": "function"
    },
    {
      "inputs": [
        {
          "internalType": "address",
          "name": "operator",
          "type": "address"
        },
        {
          "internalType": "bool",
          "name": "approved",
          "type": "bool"
        }
      ],
      "name": "setApprovalForAll",
      "outputs": [],
      "stateMutability": "nonpayable",
      "type": "function"
    },
    {
      "inputs": [
        {
          "internalType": "string",
          "name": "bookId",
          "type": "string"
        },
        {
          "internalType": "string",
          "name": "tokenURI_",
          "type": "string"
        },
        {
          "internalType": "address",
          "name": "recipient",
          "type": "address"
        }
      ],
      "name": "simpleMint",
      "outputs": [
        {
          "internalType": "uint256",
          "name": "",
          "type": "uint256"
        }
      ],
      "stateMutability": "nonpayable",
      "type": "function"
    },
    {
      "inputs": [
        {
          "internalType": "bytes4",
          "name": "interfaceId",
          "type": "bytes4"
        }
      ],
      "name": "supportsInterface",
      "outputs": [
        {
          "internalType": "bool",
          "name": "",
          "type": "bool"
        }
      ],
      "stateMutability": "view",
      "type": "function"
    },
    {
      "inputs": [],
      "name": "symbol",
      "outputs": [
        {
          "internalType": "string",
          "name": "",
          "type": "string"
        }
      ],
      "stateMutability": "view",
      "type": "function"
    },
    {
      "inputs": [
        {
          "internalType": "uint256",
          "name": "",
          "type": "uint256"
        }
      ],
      "name": "tokenToBook",
      "outputs": [
        {
          "internalType": "string",
          "name": "",
          "type": "string"
        }
      ],
      "stateMutability": "view",
      "type": "function"
    },
    {
      "inputs": [
        {
          "internalType": "uint256",
          "name": "tokenId",
          "type": "uint256"
        }
      ],
      "name": "tokenURI",
      "outputs": [
        {
          "internalType": "string",
          "name": "",
          "type": "string"
        }
      ],
      "stateMutability": "view",
      "type": "function"
    },
    {
      "inputs": [],
      "name": "totalSupply",
      "outputs": [
        {
          "internalType": "uint256",
          "name": "",
          "type": "uint256"
        }
      ],
      "stateMutability": "view",
      "type": "function"
    },
    {
      "inputs": [
        {
          "internalType": "address",
          "name": "from",
          "type": "address"
        },
        {
          "internalType": "address",
          "name": "to",
          "type": "address"
        },
        {
          "internalType": "uint256",
          "name": "tokenId",
          "type": "uint256"
        }
      ],
      "name": "transferFrom",
      "outputs": [],
      "stateMutability": "nonpayable",
      "type": "function"
    },
    {
      "inputs": [
        {
          "internalType": "address",
          "name": "newOwner",
          "type": "address"
        }
      ],
      "name": "transferOwnership",
      "outputs": [],
      "stateMutability": "nonpayable",
      "type": "function"
    },
    {
      "inputs": [
        {
          "internalType": "string",
          "name": "bookId",
          "type": "string"
        },
        {
          "components": [
            {
              "internalType": "string",
              "name": "title",
              "type": "string"
            },
            {
              "internalType": "string",
              "name": "author",
              "type": "string"
            },
            {
              "internalType": "string",
              "name": "description",
              "type": "string"
            },
            {
              "internalType": "string",
              "name": "coverImage",
              "type": "string"
            },
            {
              "internalType": "uint256",
              "name": "totalChapters",
              "type": "uint256"
            },
            {
              "internalType": "bool",
              "name": "isComplete",
              "type": "bool"
            },
            {
              "internalType": "uint256",
              "name": "mintPrice",
              "type": "uint256"
            },
            {
              "internalType": "uint256",
              "name": "maxSupply",
              "type": "uint256"
            },
            {
              "internalType": "uint256",
              "name": "currentSupply",
              "type": "uint256"
            }
          ],
          "internalType": "struct BookNFT.BookMetadata",
          "name": "metadata",
          "type": "tuple"
        }
      ],
      "name": "updateBookMetadata",
      "outputs": [],
      "stateMutability": "nonpayable",
      "type": "function"
    },
    {
      "inputs": [
        {
          "internalType": "uint256",
          "name": "newFee",
          "type": "uint256"
        }
      ],
      "name": "updatePlatformFee",
      "outputs": [],
      "stateMutability": "nonpayable",
      "type": "function"
    }
  ],
  "bytecode": "0x6080604052600160095560fa600e553480156200001b57600080fd5b503360405180604001604052806007815260200166109bdbdad3919560ca1b81525060405180604001604052806004815260200163424f4f4b60e01b81525081600090816200006b9190620001ba565b5060016200007a8282620001ba565b5050506001600160a01b038116620000ac57604051631e4fbdf760e01b81526000600482015260240160405180910390fd5b620000b781620000c3565b50600160085562000286565b600780546001600160a01b038381166001600160a01b0319831681179093556040519116919082907f8be0079c531659141344cd1fd0a4f28419497f9722a3daafe3b4186f6b6457e090600090a35050565b634e487b7160e01b600052604160045260246000fd5b600181811c908216806200014057607f821691505b6020821081036200016157634e487b7160e01b600052602260045260246000fd5b50919050565b601f821115620001b557600081815260208120601f850160051c81016020861015620001905750805b601f850160051c820191505b81811015620001b1578281556001016200019c565b5050505b505050565b81516001600160401b03811115620001d657620001d662000115565b620001ee81620001e784546200012b565b8462000167565b602080601f8311600181146200022657600084156200020d5750858301515b600019600386901b1c1916600185901b178555620001b1565b600085815260208120601f198616915b82811015620002575788860151825594840194600190910190840162000236565b5085821015620002765787850151600019600388901b60f8161c191681555b5050505050600190811b01905550565b61303f80620002966000396000f3fe6080604052600436106101ee5760003560e01c806395d89b411161010d578063db2e21bc116100a0578063ed377e511161006f578063ed377e511461059e578063f2fde38b146105d3578063f571ddf6146105f3578063f76c64d714610613578063f7a31a481461063357600080fd5b8063db2e21bc14610533578063e1f1c4a714610548578063e857ec7a1461055e578063e985e9c51461057e57600080fd5b8063aa0b5988116100dc578063aa0b5988146104c0578063b88d4fde146104e0578063b915926414610500578063c87b56dd1461051357600080fd5b806395d89b411461043157806398b8063814610446578063a22cb46514610473578063a5d1096d1461049357600080fd5b80632ea9c0801161018557806370a082311161015457806370a08231146103be578063715018a6146103de5780638da5cb5b146103f3578063941968d41461041157600080fd5b80632ea9c0801461031d57806342842e0e1461033d578063612f447c1461035d5780636352211e1461039e57600080fd5b8063142d2f6e116101c1578063142d2f6e146102a457806318160ddd146102c457806323b872dd146102e757806326232a2e1461030757600080fd5b806301ffc9a7146101f357806306fdde0314610228578063081812fc1461024a578063095ea7b314610282575b600080fd5b3480156101ff57600080fd5b5061021361020e3660046125e4565b610653565b60405190151581526020015b60405180910390f35b34801561023457600080fd5b5061023d610664565b60405161021f9190612651565b34801561025657600080fd5b5061026a610265366004612664565b6106f6565b6040516001600160a01b03909116815260200161021f565b34801561028e57600080fd5b506102a261029d366004612699565b61071f565b005b3480156102b057600080fd5b506102136102bf366004612799565b61072e565b3480156102d057600080fd5b506102d9610758565b60405190815260200161021f565b3480156102f357600080fd5b506102a26103023660046127ce565b61076e565b34801561031357600080fd5b506102d9600e5481565b34801561032957600080fd5b5061023d610338366004612664565b6107fe565b34801561034957600080fd5b506102a26103583660046127ce565b610898565b34801561036957600080fd5b5061026a610378366004612799565b8051602081830181018051600d825292820191909301209152546001600160a01b031681565b3480156103aa57600080fd5b5061026a6103b9366004612664565b6108b8565b3480156103ca57600080fd5b506102d96103d936600461280a565b6108c3565b3480156103ea57600080fd5b506102a261090b565b3480156103ff57600080fd5b506007546001600160a01b031661026a565b34801561041d57600080fd5b506102d961042c366004612825565b61091f565b34801561043d57600080fd5b5061023d61095f565b34801561045257600080fd5b50610466610461366004612799565b61096e565b60405161021f919061286a565b34801561047f57600080fd5b506102a261048e36600461293f565b610c6f565b34801561049f57600080fd5b506104b36104ae366004612799565b610c7a565b60405161021f9190612972565b3480156104cc57600080fd5b506102a26104db366004612664565b610cea565b3480156104ec57600080fd5b506102a26104fb3660046129b6565b610d77565b6102d961050e366004612b27565b610d8f565b34801561051f57600080fd5b5061023d61052e366004612664565b6113e1565b34801561053f57600080fd5b506102a26113ec565b34801561055457600080fd5b506102d961271081565b34801561056a57600080fd5b506102d9610579366004612bd1565b6114e1565b34801561058a57600080fd5b50610213610599366004612c45565b6116a9565b3480156105aa57600080fd5b506105be6105b9366004612799565b6116d7565b60405161021f99989796959493929190612c6f565b3480156105df57600080fd5b506102a26105ee36600461280a565b61194d565b3480156105ff57600080fd5b506102a261060e366004612ced565b61198b565b34801561061f57600080fd5b5061023d61062e366004612664565b611b39565b34801561063f57600080fd5b5061026a61064e366004612799565b611bd1565b600061065e82611c02565b92915050565b60606000805461067390612d51565b80601f016020809104026020016040519081016040528092919081815260200182805461069f90612d51565b80156106ec5780601f106106c1576101008083540402835291602001916106ec565b820191906000526020600020905b8154815290600101906020018083116106cf57829003601f168201915b5050505050905090565b600061070182611c27565b506000828152600460205260409020546001600160a01b031661065e565b61072a828233611c60565b5050565b600080600b836040516107419190612d8b565b908152604051908190036020019020541192915050565b600060016009546107699190612dbd565b905090565b6001600160a01b03821661079d57604051633250574960e11b8152600060048201526024015b60405180910390fd5b60006107aa838333611c6d565b9050836001600160a01b0316816001600160a01b0316146107f8576040516364283d7b60e01b81526001600160a01b0380861660048301526024820184905282166044820152606401610794565b50505050565b600c602052600090815260409020805461081790612d51565b80601f016020809104026020016040519081016040528092919081815260200182805461084390612d51565b80156108905780601f1061086557610100808354040283529160200191610890565b820191906000526020600020905b81548152906001019060200180831161087357829003601f168201915b505050505081565b6108b383838360405180602001604052806000815250610d77565b505050565b600061065e82611c27565b60006001600160a01b0382166108ef576040516322718ad960e21b815260006004820152602401610794565b506001600160a01b031660009081526003602052604090205490565b610913611d66565b61091d6000611d93565b565b8151602081840181018051600b82529282019185019190912091905280548290811061094a57600080fd5b90600052602060002001600091509150505481565b60606001805461067390612d51565b6109bf60405180610120016040528060608152602001606081526020016060815260200160608152602001600081526020016000151581526020016000815260200160008152602001600081525090565b600a826040516109cf9190612d8b565b9081526020016040518091039020604051806101200160405290816000820180546109f990612d51565b80601f0160208091040260200160405190810160405280929190818152602001828054610a2590612d51565b8015610a725780601f10610a4757610100808354040283529160200191610a72565b820191906000526020600020905b815481529060010190602001808311610a5557829003601f168201915b50505050508152602001600182018054610a8b90612d51565b80601f0160208091040260200160405190810160405280929190818152602001828054610ab790612d51565b8015610b045780601f10610ad957610100808354040283529160200191610b04565b820191906000526020600020905b815481529060010190602001808311610ae757829003601f168201915b50505050508152602001600282018054610b1d90612d51565b80601f0160208091040260200160405190810160405280929190818152602001828054610b4990612d51565b8015610b965780601f10610b6b57610100808354040283529160200191610b96565b820191906000526020600020905b815481529060010190602001808311610b7957829003601f168201915b50505050508152602001600382018054610baf90612d51565b80601f0160208091040260200160405190810160405280929190818152602001828054610bdb90612d51565b8015610c285780601f10610bfd57610100808354040283529160200191610c28565b820191906000526020600020905b815481529060010190602001808311610c0b57829003601f168201915b505050918352505060048201546020820152600582015460ff1615156040820152600682015460608201526007820154608082015260089091015460a09091015292915050565b61072a338383611de5565b6060600b82604051610c8c9190612d8b565b9081526040805191829003602090810183208054808302850183019093528284529190830182828015610cde57602002820191906000526020600020905b815481526020019060010190808311610cca575b50505050509050919050565b610cf2611d66565b6103e8811115610d3c5760405162461bcd60e51b81526020600482015260156024820152744665652063616e6e6f74206578636565642031302560581b6044820152606401610794565b600e8190556040518181527f45610d581145924dd7090a5017e5f2b1d6f42213bb2e95707ff86846bbfcb1ca9060200160405180910390a150565b610d8284848461076e565b6107f83385858585611e84565b6000610d99611faf565b8460c00151341015610de45760405162461bcd60e51b8152602060048201526014602482015273125b9cdd59999a58da595b9d081c185e5b595b9d60621b6044820152606401610794565b8460e0015185610100015110610e315760405162461bcd60e51b815260206004820152601260248201527113585e081cdd5c1c1b1e481c995858da195960721b6044820152606401610794565b6001600160a01b038316610e7b5760405162461bcd60e51b8152602060048201526011602482015270125b9d985b1a59081c9958da5c1a595b9d607a1b6044820152606401610794565b6001600160a01b038216610eca5760405162461bcd60e51b8152602060048201526016602482015275496e76616c696420617574686f72206164647265737360501b6044820152606401610794565b6000865111610f155760405162461bcd60e51b8152602060048201526017602482015276426f6f6b2049442063616e6e6f7420626520656d70747960481b6044820152606401610794565b600b86604051610f259190612d8b565b908152604051908190036020019020546000036110345784600a87604051610f4d9190612d8b565b90815260405190819003602001902081518190610f6a9082612e16565b5060208201516001820190610f7f9082612e16565b5060408201516002820190610f949082612e16565b5060608201516003820190610fa99082612e16565b506080820151600482015560a082015160058201805460ff191691151591909117905560c0820151600682015560e08201516007820155610100909101516008909101556040518290600d90611000908990612d8b565b90815260405190819003602001902080546001600160a01b03929092166001600160a01b031990921691909117905561113a565b816001600160a01b0316600d8760405161104e9190612d8b565b908152604051908190036020019020546001600160a01b0316146110b45760405162461bcd60e51b815260206004820152601d60248201527f4f6e6c79206f726967696e616c20617574686f722063616e206d696e740000006044820152606401610794565b600a866040516110c49190612d8b565b908152602001604051809103902060070154600a876040516110e69190612d8b565b9081526020016040518091039020600801541061113a5760405162461bcd60e51b815260206004820152601260248201527113585e081cdd5c1c1b1e481c995858da195960721b6044820152606401610794565b6000612710600e543461114d9190612ed6565b6111579190612eed565b905060006111658234612dbd565b905081156112235760006111816007546001600160a01b031690565b6001600160a01b03168360405160006040518083038185875af1925050503d80600081146111cb576040519150601f19603f3d011682016040523d82523d6000602084013e6111d0565b606091505b50509050806112215760405162461bcd60e51b815260206004820152601c60248201527f506c6174666f726d20666565207472616e73666572206661696c6564000000006044820152606401610794565b505b80156112c6576000846001600160a01b03168260405160006040518083038185875af1925050503d8060008114611276576040519150601f19603f3d011682016040523d82523d6000602084013e61127b565b606091505b50509050806112c45760405162461bcd60e51b8152602060048201526015602482015274105d5d1a1bdc881c185e5b595b9d0819985a5b1959605a1b6044820152606401610794565b505b60098054600091826112d783612f0f565b9190505590506112e78682611fd9565b6112f18188611ff3565b600b896040516113019190612d8b565b90815260408051602092819003830190208054600181018255600091825283822001849055838152600c909252902061133a8a82612e16565b50600a8960405161134b9190612d8b565b908152604051908190036020019020600801805490600061136b83612f0f565b9190505550856001600160a01b0316896040516113889190612d8b565b6040518091039020827f7690cae8679bf249040286b9f4d9b350ca48ed6efb7639340b4c9541ff2f07158a346040516113c2929190612f28565b60405180910390a4925050506113d86001600855565b95945050505050565b606061065e82612043565b6113f4611d66565b47806114395760405162461bcd60e51b81526020600482015260146024820152734e6f2066756e647320746f20776974686472617760601b6044820152606401610794565b600061144d6007546001600160a01b031690565b6001600160a01b03168260405160006040518083038185875af1925050503d8060008114611497576040519150601f19603f3d011682016040523d82523d6000602084013e61149c565b606091505b505090508061072a5760405162461bcd60e51b815260206004820152601160248201527015da5d1a191c985dd85b0819985a5b1959607a1b6044820152606401610794565b60006114eb611d66565b60008451116115365760405162461bcd60e51b8152602060048201526017602482015276426f6f6b2049442063616e6e6f7420626520656d70747960481b6044820152606401610794565b60008351116115875760405162461bcd60e51b815260206004820152601960248201527f546f6b656e205552492063616e6e6f7420626520656d707479000000000000006044820152606401610794565b6001600160a01b0382166115d15760405162461bcd60e51b8152602060048201526011602482015270125b9d985b1a59081c9958da5c1a595b9d607a1b6044820152606401610794565b60098054600091826115e283612f0f565b9190505590506115f28382611fd9565b6115fc8185611ff3565b600b8560405161160c9190612d8b565b90815260408051602092819003830190208054600181018255600091825283822001849055838152600c90925290206116458682612e16565b50826001600160a01b03168560405161165e9190612d8b565b6040518091039020827f7690cae8679bf249040286b9f4d9b350ca48ed6efb7639340b4c9541ff2f0715876000604051611699929190612f28565b60405180910390a4949350505050565b6001600160a01b03918216600090815260056020908152604080832093909416825291909152205460ff1690565b8051602081830181018051600a825292820191909301209152805481906116fd90612d51565b80601f016020809104026020016040519081016040528092919081815260200182805461172990612d51565b80156117765780601f1061174b57610100808354040283529160200191611776565b820191906000526020600020905b81548152906001019060200180831161175957829003601f168201915b50505050509080600101805461178b90612d51565b80601f01602080910402602001604051908101604052809291908181526020018280546117b790612d51565b80156118045780601f106117d957610100808354040283529160200191611804565b820191906000526020600020905b8154815290600101906020018083116117e757829003601f168201915b50505050509080600201805461181990612d51565b80601f016020809104026020016040519081016040528092919081815260200182805461184590612d51565b80156118925780601f1061186757610100808354040283529160200191611892565b820191906000526020600020905b81548152906001019060200180831161187557829003601f168201915b5050505050908060030180546118a790612d51565b80601f01602080910402602001604051908101604052809291908181526020018280546118d390612d51565b80156119205780601f106118f557610100808354040283529160200191611920565b820191906000526020600020905b81548152906001019060200180831161190357829003601f168201915b50505060048401546005850154600686015460078701546008909701549596929560ff9092169450925089565b611955611d66565b6001600160a01b03811661197f57604051631e4fbdf760e01b815260006004820152602401610794565b61198881611d93565b50565b6007546001600160a01b03163314806119cd5750600d826040516119af9190612d8b565b90815260405190819003602001902054336001600160a01b03909116145b611a2a5760405162461bcd60e51b815260206004820152602860248201527f4f6e6c79206f776e6572206f7220617574686f722063616e20757064617465206044820152676d6574616461746160c01b6064820152608401610794565b80600a83604051611a3b9190612d8b565b90815260405190819003602001902081518190611a589082612e16565b5060208201516001820190611a6d9082612e16565b5060408201516002820190611a829082612e16565b5060608201516003820190611a979082612e16565b506080820151600482015560a082015160058201805460ff191691151591909117905560c0820151600682015560e0820151600782015561010090910151600890910155604051611ae9908390612d8b565b6040519081900381208251602084015160e085015192937f15bfbcf8c30a125eb7d4aa39ef6735ae772164612b1a5ed873d40a6cdea6967693611b2d939291612f4a565b60405180910390a25050565b6000818152600c60205260409020805460609190611b5690612d51565b80601f0160208091040260200160405190810160405280929190818152602001828054611b8290612d51565b8015610cde5780601f10611ba457610100808354040283529160200191610cde565b820191906000526020600020905b815481529060010190602001808311611bb25750939695505050505050565b6000600d82604051611be39190612d8b565b908152604051908190036020019020546001600160a01b031692915050565b60006001600160e01b03198216632483248360e11b148061065e575061065e82612154565b6000818152600260205260408120546001600160a01b03168061065e57604051637e27328960e01b815260048101849052602401610794565b6108b383838360016121a4565b6000828152600260205260408120546001600160a01b0390811690831615611c9a57611c9a8184866122aa565b6001600160a01b03811615611cd857611cb76000856000806121a4565b6001600160a01b038116600090815260036020526040902080546000190190555b6001600160a01b03851615611d07576001600160a01b0385166000908152600360205260409020805460010190555b60008481526002602052604080822080546001600160a01b0319166001600160a01b0389811691821790925591518793918516917fddf252ad1be2c89b69c2b068fc378daa952ba7f163c4a11628f55a4df523b3ef91a4949350505050565b6007546001600160a01b0316331461091d5760405163118cdaa760e01b8152336004820152602401610794565b600780546001600160a01b038381166001600160a01b0319831681179093556040519116919082907f8be0079c531659141344cd1fd0a4f28419497f9722a3daafe3b4186f6b6457e090600090a35050565b6001600160a01b038216611e1757604051630b61174360e31b81526001600160a01b0383166004820152602401610794565b6001600160a01b03838116600081815260056020908152604080832094871680845294825291829020805460ff191686151590811790915591519182527f17307eab39ab6107e8899845ad3d59bd9653f200f220920489ca2b5937696c31910160405180910390a3505050565b6001600160a01b0383163b15611fa857604051630a85bd0160e11b81526001600160a01b0384169063150b7a0290611ec6908890889087908790600401612f80565b6020604051808303816000875af1925050508015611f01575060408051601f3d908101601f19168201909252611efe91810190612fbd565b60015b611f6a573d808015611f2f576040519150601f19603f3d011682016040523d82523d6000602084013e611f34565b606091505b508051600003611f6257604051633250574960e11b81526001600160a01b0385166004820152602401610794565b805160208201fd5b6001600160e01b03198116630a85bd0160e11b14611fa657604051633250574960e11b81526001600160a01b0385166004820152602401610794565b505b5050505050565b600260085403611fd257604051633ee5aeb560e01b815260040160405180910390fd5b6002600855565b61072a82826040518060200160405280600081525061230e565b600082815260066020526040902061200b8282612e16565b506040518281527ff8e1a15aba9398e019f0b49df1a4fde98ee17ae345cb5f6b5e2c27f5033e8ce79060200160405180910390a15050565b606061204e82611c27565b506000828152600660205260408120805461206890612d51565b80601f016020809104026020016040519081016040528092919081815260200182805461209490612d51565b80156120e15780601f106120b6576101008083540402835291602001916120e1565b820191906000526020600020905b8154815290600101906020018083116120c457829003601f168201915b5050505050905060006120ff60408051602081019091526000815290565b90508051600003612111575092915050565b81511561214357808260405160200161212b929190612fda565b60405160208183030381529060405292505050919050565b61214c84612326565b949350505050565b60006001600160e01b031982166380ac58cd60e01b148061218557506001600160e01b03198216635b5e139f60e01b145b8061065e57506301ffc9a760e01b6001600160e01b031983161461065e565b80806121b857506001600160a01b03821615155b1561227a5760006121c884611c27565b90506001600160a01b038316158015906121f45750826001600160a01b0316816001600160a01b031614155b8015612207575061220581846116a9565b155b156122305760405163a9fbf51f60e01b81526001600160a01b0384166004820152602401610794565b81156122785783856001600160a01b0316826001600160a01b03167f8c5be1e5ebec7d5bd14f71427d1e84f3dd0314c0f7b2291e5b200ac8c7c3b92560405160405180910390a45b505b5050600090815260046020526040902080546001600160a01b0319166001600160a01b0392909216919091179055565b6122b583838361239b565b6108b3576001600160a01b0383166122e357604051637e27328960e01b815260048101829052602401610794565b60405163177e802f60e01b81526001600160a01b038316600482015260248101829052604401610794565b61231883836123fe565b6108b3336000858585611e84565b606061233182611c27565b50600061234960408051602081019091526000815290565b905060008151116123695760405180602001604052806000815250612394565b8061237384612463565b604051602001612384929190612fda565b6040516020818303038152906040525b9392505050565b60006001600160a01b0383161580159061214c5750826001600160a01b0316846001600160a01b031614806123d557506123d584846116a9565b8061214c5750506000908152600460205260409020546001600160a01b03908116911614919050565b6001600160a01b03821661242857604051633250574960e11b815260006004820152602401610794565b600061243683836000611c6d565b90506001600160a01b038116156108b3576040516339e3563760e11b815260006004820152602401610794565b60606000612470836124f6565b600101905060008167ffffffffffffffff811115612490576124906126c3565b6040519080825280601f01601f1916602001820160405280156124ba576020820181803683370190505b5090508181016020015b600019016f181899199a1a9b1b9c1cb0b131b232b360811b600a86061a8153600a85049450846124c457509392505050565b60008072184f03e93ff9f4daa797ed6e38ed64bf6a1f0160401b83106125355772184f03e93ff9f4daa797ed6e38ed64bf6a1f0160401b830492506040015b6d04ee2d6d415b85acef81000000008310612561576d04ee2d6d415b85acef8100000000830492506020015b662386f26fc10000831061257f57662386f26fc10000830492506010015b6305f5e1008310612597576305f5e100830492506008015b61271083106125ab57612710830492506004015b606483106125bd576064830492506002015b600a831061065e5760010192915050565b6001600160e01b03198116811461198857600080fd5b6000602082840312156125f657600080fd5b8135612394816125ce565b60005b8381101561261c578181015183820152602001612604565b50506000910152565b6000815180845261263d816020860160208601612601565b601f01601f19169290920160200192915050565b6020815260006123946020830184612625565b60006020828403121561267657600080fd5b5035919050565b80356001600160a01b038116811461269457600080fd5b919050565b600080604083850312156126ac57600080fd5b6126b58361267d565b946020939093013593505050565b634e487b7160e01b600052604160045260246000fd5b604051610120810167ffffffffffffffff811182821017156126fd576126fd6126c3565b60405290565b600067ffffffffffffffff8084111561271e5761271e6126c3565b604051601f8501601f19908116603f01168101908282118183101715612746576127466126c3565b8160405280935085815286868601111561275f57600080fd5b858560208301376000602087830101525050509392505050565b600082601f83011261278a57600080fd5b61239483833560208501612703565b6000602082840312156127ab57600080fd5b813567ffffffffffffffff8111156127c257600080fd5b61214c84828501612779565b6000806000606084860312156127e357600080fd5b6127ec8461267d565b92506127fa6020850161267d565b9150604084013590509250925092565b60006020828403121561281c57600080fd5b6123948261267d565b6000806040838503121561283857600080fd5b823567ffffffffffffffff81111561284f57600080fd5b61285b85828601612779565b95602094909401359450505050565b6020815260008251610120806020850152612889610140850183612625565b91506020850151601f19808685030160408701526128a78483612625565b935060408701519150808685030160608701526128c48483612625565b93506060870151915080868503016080870152506128e28382612625565b925050608085015160a085015260a085015161290260c086018215159052565b5060c085015160e085015260e0850151610100818187015280870151838701525050508091505092915050565b8035801515811461269457600080fd5b6000806040838503121561295257600080fd5b61295b8361267d565b91506129696020840161292f565b90509250929050565b6020808252825182820181905260009190848201906040850190845b818110156129aa5783518352928401929184019160010161298e565b50909695505050505050565b600080600080608085870312156129cc57600080fd5b6129d58561267d565b93506129e36020860161267d565b925060408501359150606085013567ffffffffffffffff811115612a0657600080fd5b8501601f81018713612a1757600080fd5b612a2687823560208401612703565b91505092959194509250565b60006101208284031215612a4557600080fd5b612a4d6126d9565b9050813567ffffffffffffffff80821115612a6757600080fd5b612a7385838601612779565b83526020840135915080821115612a8957600080fd5b612a9585838601612779565b60208401526040840135915080821115612aae57600080fd5b612aba85838601612779565b60408401526060840135915080821115612ad357600080fd5b50612ae084828501612779565b60608301525060808201356080820152612afc60a0830161292f565b60a082015260c082013560c082015260e082013560e082015261010080830135818301525092915050565b600080600080600060a08688031215612b3f57600080fd5b853567ffffffffffffffff80821115612b5757600080fd5b612b6389838a01612779565b96506020880135915080821115612b7957600080fd5b612b8589838a01612a32565b95506040880135915080821115612b9b57600080fd5b50612ba888828901612779565b935050612bb76060870161267d565b9150612bc56080870161267d565b90509295509295909350565b600080600060608486031215612be657600080fd5b833567ffffffffffffffff80821115612bfe57600080fd5b612c0a87838801612779565b94506020860135915080821115612c2057600080fd5b50612c2d86828701612779565b925050612c3c6040850161267d565b90509250925092565b60008060408385031215612c5857600080fd5b612c618361267d565b91506129696020840161267d565b6000610120808352612c838184018d612625565b90508281036020840152612c97818c612625565b90508281036040840152612cab818b612625565b90508281036060840152612cbf818a612625565b6080840198909852505093151560a085015260c084019290925260e083015261010090910152949350505050565b60008060408385031215612d0057600080fd5b823567ffffffffffffffff80821115612d1857600080fd5b612d2486838701612779565b93506020850135915080821115612d3a57600080fd5b50612d4785828601612a32565b9150509250929050565b600181811c90821680612d6557607f821691505b602082108103612d8557634e487b7160e01b600052602260045260246000fd5b50919050565b60008251612d9d818460208701612601565b9190910192915050565b634e487b7160e01b600052601160045260246000fd5b8181038181111561065e5761065e612da7565b601f8211156108b357600081815260208120601f850160051c81016020861015612df75750805b601f850160051c820191505b81811015611fa657828155600101612e03565b815167ffffffffffffffff811115612e3057612e306126c3565b612e4481612e3e8454612d51565b84612dd0565b602080601f831160018114612e795760008415612e615750858301515b600019600386901b1c1916600185901b178555611fa6565b600085815260208120601f198616915b82811015612ea857888601518255948401946001909101908401612e89565b5085821015612ec65787850151600019600388901b60f8161c191681555b5050505050600190811b01905550565b808202811582820484141761065e5761065e612da7565b600082612f0a57634e487b7160e01b600052601260045260246000fd5b500490565b600060018201612f2157612f21612da7565b5060010190565b604081526000612f3b6040830185612625565b90508260208301529392505050565b606081526000612f5d6060830186612625565b8281036020840152612f6f8186612625565b915050826040830152949350505050565b6001600160a01b0385811682528416602082015260408101839052608060608201819052600090612fb390830184612625565b9695505050505050565b600060208284031215612fcf57600080fd5b8151612394816125ce565b60008351612fec818460208801612601565b835190830190613000818360208801612601565b0194935050505056fea2646970667358221220e7234d1706cf3870c223fb52de2f44313adc28303b2292fbe227c21edfc89a8164736f6c63430008140033",
  "linkReferences": {},
  "deployedLinkReferences": {}
}